:1000000012C024C023C022C021C020C01FC01EC0F7
:100010001DC01CC01BC01AC019C018C017C016C014
:1000200015C014C013C011241FBECFE5D4E0DEBF3D
:10003000CDBF10E0A0E6B0E0EAE3F1E002C0059039
:100040000D92A636B107D9F702D075C0D9CFCF939C
:10005000DF9300D000D01F92CDB7DEB785E0E0E699
:10006000F0E0DE01119601900D928A95E1F78FEF95
:1000700081BB8FE084BB00E010E0E12CF12C29C0B3
:1000800012BA21E030E00E2E02C0220F331F0A9474
:10009000E2F7209525BBC8018E0F9F1F65E070E039
:1000A00023D0A1E0B0E0AC0FBD1FA80FB91F8C9109
:1000B00082BB89EF90E00197F1F700C00000319614
:1000C00002C0E0E0F0E0E430F105D4F29FEFE91A7D
:1000D000F90A81E4E816F104A4F3C801019665E089
:1000E00070E002D08C01C9CF97FB072E16F4009464
:1000F00006D077FD08D00BD007FC05D03EF49095D4
:1001000081959F4F0895709561957F4F0895AA1B23
:10011000BB1B51E107C0AA1FBB1FA617B70710F0F2
:10012000A61BB70B881F991F5A95A9F78095909524
:0A013000BC01CD010895F894FFCF43
:06013A0077370677000094
:00000001FF
