:1000000019C020C01FC01EC01DC01CC01BC01AC00C
:1000100019C018C017C016C015C014C013C012C034
:1000200011C010C00FC03F73793700000039383F4E
:100030006D795E0011241FBECFE5D4E0DEBFCDBFD9
:1000400002D0A0C0DDCF8FEF81BB84B38F6084BBB3
:1000500087B38E7F87BB88B3816088BBF12C20E09B
:10006000C0E0D0E086B301E0982F917080FD00E001
:1000700091110BC0211109C083EC99E00197F1F7B0
:1000800000C00000FF24F39410C0992371F02223D4
:1000900061F083EC99E00197F1F700C00000FF20C8
:1000A00021F081E0C827F12CD0E010E034C012BA72
:1000B00021E030E0042E02C0220F331F0A94E2F741
:1000C000209525BB2C2F30E08D2F90E0840F911DC3
:1000D000CC2319F067E070E002C065E070E02BD03F
:1000E000F901EE0FFF1FEE0FFF1FEE0FFF1FE21BC8
:1000F000F30BE80FF91FEA5DFF4FE491E2BB89EFD4
:1001000090E00197F1F700C000004F5F01C040E0B0
:10011000443068F21F5F1233D0F38D2F90E00196C8
:10012000CC2319F067E070E002C065E070E003D016
:10013000D82F202F97CF97FB072E16F4009406D0C8
:1001400077FD08D00BD007FC05D03EF49095819543
:100150009F4F0895709561957F4F0895AA1BBB1B13
:1001600051E107C0AA1FBB1FA617B70710F0A61BB7
:10017000B70B881F991F5A95A9F780959095BC01D8
:08018000CD010895F894FFCFB2
:00000001FF
